:100000000C9489000C94AA000C94AA000C94AA00E9
:100010000C94AA000C943E070C9463070C94AA005D
:100020000C94AA000C94AA000C94AA000C94AA00A8
:100030000C94AA000C94AA000C94AA000C94AA0098
:100040000C94AA000C94AA000C94AA000C94AA0088
:100050000C94AA000C94AA000C94AA000C943406E8
:100060000C94AA000C94AA000C94AA000C94AA0068
:100070000C94AA000C94AA000C94AA000C94AA0058
:100080000C94AA000C94AA000C94AA000C94AA0048
:100090000C94AA000C94AA000C94AA000C94AA0038
:1000A0000C94AA000C94AA000C94AA000C94AA0028
:1000B0000C94AA000C94AA000C94AA000C94AA0018
:1000C0000C94AA000C94AA000C94AA000C94AA0008
:1000D0000C94AA000C94AA000C94AA000C94AA00F8
:1000E0000C94AA00084AD73B3BCE016E84BCBFFDEE
:1000F000C12F3D6C74319ABD56833DDA3D00C77FF8
:1001000011BED9E4BB4C3E916BAAAABE0000008090
:100110003F0011241FBECFEFD1E2DEBFCDBF00E014
:100120000CBF12E0A0E0B2E0E0E1F8E200E00BBFBB
:1001300002C007900D92A034B107D9F712E0A0E4F5
:10014000B2E001C01D92A238B107E1F70E944D0E46
:100150000C9406140C9400003B9A4398089598B1AF
:100160009F7098B998B1282F207F922B98B940980A
:100170004198429AEFEFF7E43197F1F700C00000A1
:10018000429898B19F7098B998B18295807F892BD9
:1001900088B940984198429A8FEF97E40197F1F718
:1001A00000C000004298089587B1876F87B988B171
:1001B000807888B9089586E69EE00197F1F70000FF
:1001C0004098419880E388B9429AEFEFF7E431977D
:1001D000F1F700C000004298E6E6FEE03197F1F743
:1001E00000004098419888B9429AEFEFF7E43197C0
:1001F000F1F700C000004298E6E6FEE03197F1F723
:1002000000004098419888B9429A8FEF97E401978F
:10021000F1F700C000004298E6E6FEE03197F1F702
:1002200000004098419880E288B9429A86E69EE0B4
:100230000197F1F7000042980895CF93DF9386E687
:100240009EE00197F1F700000E94D4000E94DB00BD
:10025000CFEAD0E088E290E0FE01199581E090E0DD
:10026000FE01199586E090E0FE0119958EE090E080
:10027000FE01199580E890E0FE011995DF91CF917C
:10028000089598B19F7098B998B1282F207F922B2C
:1002900098B9409A4198429AEFEFF7E43197F1F715
:1002A00000C00000429898B19F7098B998B18295AB
:1002B000807F892B88B9409A4198429A8FEF97E4C2
:1002C0000197F1F700C000004298089580E80E946D
:1002D000AF000895CF93DF93EC018881882331F03C
:1002E00021960E94410189918823D9F7DF91CF910E
:1002F0000895823079F0833018F48130C9F405C054
:10030000833069F08430A1F40FC0862F81580E9499
:10031000AF000895862F81540E94AF000895862F64
:100320008D560E94AF000895862F8D520E94AF0017
:1003300008950F931F93CF93DF938A01E9018823D8
:1003400011F0662319F40E94660102C00E9479012F
:10035000C530D10571F4C80160E177E20E940E1149
:10036000CB01C09690937302809372020E94410168
:1003700003C0C430D105B9F4C80168EE73E00E942F
:100380000E11CB0170937502609374026AE070E005
:100390000E940E11C09690938102809380020E9469
:1003A000410181E001C080E0C330D10511F081300E
:1003B000B1F4C80164E670E00E940E11CB017093A5
:1003C0007502609374026AE070E00E940E11C0969C
:1003D00090937D0280937C020E94410181E0C230B3
:1003E000D10511F08130B1F42AE030E0C801B90143
:1003F0000E940E11CB017093750260937402B901D3
:100400000E940E11C09690937702809376020E940C
:10041000410181E0C130D10511F0813061F4C801A2
:100420006AE070E00E940E11C09690937F02809364
:100430007E020E944101C630D1051CF085E40E9475
:100440004101DF91CF911F910F910895F894E1EC54
:10045000F0E010821092C00086E08093C2008FE529
:100460008093C4001092C500808188618083789455
:100470000895E0ECF0E0908195FFFDCF8093C600F9
:100480000895E0ECF0E080818823ECF78091C600CD
:100490000895EF92FF920F931F93CF93DF93E82F6E
:1004A000F92FEF0109900020E9F72197CE1BDF0B10
:1004B0001C161D0674F4E82EF92E00E010E0F7017A
:1004C00081917F010E9439020F5F1F4FC017D10732
:1004D000B1F7DF91CF911F910F91FF90EF900895A9
:1004E0001092B900ECEBF0E0108284EC80838AE09B
:1004F0008093B8000895ECEBF0E080818066808303
:100500000895ECEBF0E08081806880830895ECEB47
:10051000F0E080818823ECF70895ECEBF0E0808137
:100520008061808308958091B900887F08958093C9
:10053000BB0008952091BB00FC01208308951F9308
:10054000CF93DF93182FC62FD42F0E947B020E94D7
:1005500087020E949302883051F5812F0E949702F2
:10056000ECEBF0E080818F7D80830E9481020E940D
:1005700087020E9493028831E1F48C2F0E94970237
:100580000E9481020E9487020E949302883299F49D
:100590008D2F0E9497020E9481020E9487020E9472
:1005A0009302883251F40E948D0280E007C088EFE8
:1005B00005C089EF03C08BEF01C08BEFDF91CF91B6
:1005C0001F9108950F931F93CF93DF93C82FD62FBA
:1005D0008A010E947B020E9487020E949302883057
:1005E00009F048C08C2F0E949702ECEBF0E080816C
:1005F0008F7D80830E9481020E9487020E94930265
:100600008831D1F58D2F0E9497020E9481020E94AD
:1006100087020E949302883289F50E947B020E9421
:1006200087020E949302803159F58C2F81600E94CD
:100630009702ECEBF0E080818F7D80830E94810245
:100640000E9487020E9493028034E1F4ECEBF0E018
:1006500080818F7B80830E9481020E9487020E949A
:100660009302883589F4C8010E949A020E948D0283
:1006700080E00BC088EF09C089EF07C08BEF05C091
:100680008DEF03C08AEF01C08CEFDF91CF911F91F6
:100690000F9108958F929F92AF92BF92CF92DF9267
:1006A000EF92FF920F931F93CF93DF93C82F062FE4
:1006B0005A0169010E947B020E9487020E949302F4
:1006C000883009F073C08C2F0E949702ECEBF0E0A9
:1006D00080818F7D80830E9481020E9487020E9418
:1006E0009302883109F064C0802F80680E949702CD
:1006F0000E9481020E9487020E949302883209F0C0
:1007000059C00E947B020E9487020E94930280319E
:1007100009F052C08C2F81600E949702ECEBF0E050
:1007200080818F7D80830E9481020E9487020E94C7
:100730009302803409F042C0A114B10499F1C0E0E1
:10074000D0E075010894E108F1080CEB10E04601D7
:100750008E0C9F1CEC16FD0681F4F80180818F7BC6
:1007600080830E9481020E9487020E949302883542
:1007700039F5C4010E949A0211C0F8018081806499
:1007800080830E9481020E9487020E94930280352A
:10079000C9F4C6018C0F9D1F0E949A022196CA15AA
:1007A000DB05C1F60E948D0280E00DC088EF0BC012
:1007B00089EF09C08BEF07C08DEF05C08AEF03C03A
:1007C0008FEF01C08EEFDF91CF911F910F91FF90BE
:1007D000EF90DF90CF90BF90AF909F908F90089553
:1007E000CF92DF92EF92FF920F931F93CF93DF93FD
:1007F00000D000D0CDB7DEB78C017B016A0180ED5F
:1008000063E442E050E09E012F5F3F4F0E944A03A5
:1008100080ED65E442E050E09E012D5F3F4F0E9475
:100820004A0380ED67E442E050E09E012B5F3F4FBA
:100830000E944A03598140E03B8120E08C8190E096
:10084000B901682B792B3D8120E08E8190E0282B27
:10085000392B8A8190E0842B952BF801918380833A
:10086000F70171836083F6013183208326960FB6EA
:10087000F894DEBF0FBECDBFDF91CF911F910F91D6
:10088000FF90EF90DF90CF900895CF92DF92EF929C
:10089000FF920F931F93CF93DF9300D000D0CDB77B
:1008A000DEB78C017B016A0180ED6BE342E050E032
:1008B0009E012F5F3F4F0E944A0380ED6DE342E0AF
:1008C00050E09E012D5F3F4F0E944A0380ED6FE391
:1008D00042E050E09E012B5F3F4F0E944A03598146
:1008E00040E03B8120E08C8190E0B901682B792BBE
:1008F0003D8120E08E8190E0282B392B8A8190E089
:10090000842B952BF80191838083F7017183608399
:10091000F6013183208326960FB6F894DEBF0FBE12
:10092000CDBFDF91CF911F910F91FF90EF90DF909E
:10093000CF9008950F931F93CF93DF93CDB7DEB77A
:100940002C970FB6F894DEBF0FBECDBF0E94700289
:1009500080ED6BE640E00E949F028FEF9FE7A4E0EE
:1009600081509040A040E1F700C0000008EE13E085
:10097000CE010196BE016D5F7F4FAE014B5F5F4FB1
:100980000E94F00369817A81882777FD8095982FEE
:100990000E94B20F9B01AC016091640270916502EC
:1009A00080916602909167020E94560EDC01CB0195
:1009B0008093640290936502A0936602B0936702ED
:1009C0006B817C81882777FD8095982F0E94B20FDC
:1009D0009B01AC01609160027091610280916202A2
:1009E000909163020E94560EDC01CB01809360025D
:1009F00090936102A0936202B09363026D817E8145
:100A0000882777FD8095982F0E94B20F9B01AC013B
:100A100060915C0270915D0280915E0290915F0234
:100A20000E94560EDC01CB0180935C0290935D0224
:100A3000A0935E02B0935F020150104009F098CF7E
:100A400060916402709165028091660290916702E4
:100A500020E030E04AE754E40E941C0FDC01CB01A7
:100A60008093640290936502A0936602B09367023C
:100A700060916002709161028091620290916302C4
:100A800020E030E04AE754E40E941C0FDC01CB0177
:100A90008093600290936102A0936202B09363021C
:100AA00060915C0270915D0280915E0290915F02A4
:100AB00020E030E04AE754E40E941C0FDC01CB0147
:100AC00080935C0290935D02A0935E02B0935F02FC
:100AD00008EE13E0CE010796BE01675F7F4FAE01BF
:100AE000455F5F4F0E9445046F817885882777FDB9
:100AF0008095982F0E94B20F9B01AC016091580223
:100B00007091590280915A0290915B020E94560E98
:100B1000DC01CB018093580290935902A0935A02B2
:100B2000B0935B0269857A85882777FD8095982F39
:100B30000E94B20F9B01AC0160915402709155026A
:100B400080915602909157020E94560EDC01CB0113
:100B50008093540290935502A0935602B09357028B
:100B60006B857C85882777FD8095982F0E94B20F32
:100B70009B01AC0160915002709151028091520230
:100B8000909153020E94560EDC01CB0180935002DB
:100B900090935102A0935202B0935302015010401F
:100BA00009F098CF609158027091590280915A02D1
:100BB00090915B0220E030E04AE754E40E941C0F71
:100BC000DC01CB018093580290935902A0935A0202
:100BD000B0935B026091540270915502809156026D
:100BE0009091570220E030E04AE754E40E941C0F45
:100BF000DC01CB018093540290935502A0935602DE
:100C0000B09357026091500270915102809152024C
:100C10009091530220E030E04AE754E40E941C0F18
:100C2000DC01CB018093500290935102A0935202B9
:100C3000B09353022C960FB6F894DEBF0FBECDBF13
:100C4000DF91CF911F910F91089514BC83E085BD72
:100C500085B385BB16BC81E080936E00E4E6F0E0CE
:100C600080818A7F808308951F920F920FB60F9222
:100C70000BB60F9211242F933F934F935F936F9373
:100C80007F938F939F93AF93EF93FF938CEC86BDED
:100C9000509148024091490230914A0220914B0202
:100CA00090914C02F0914D02E0914E02A0914F02C2
:100CB000752F7F5F61E0751708F060E0842F50E0CA
:100CC000640F41E0681708F040E0542B832F40E0A8
:100CD000530F31E0581708F030E0432B822F30E0FB
:100CE000420F21E0481708F020E0322B892F20E046
:100CF000390F91E0381708F090E0292B8F2F90E002
:100D00002F0FF1E0281708F0F0E09F2BFE2F80E076
:100D10009E0FE1E09F1708F0E0E08E2B8A0F7093A2
:100D200048026093490250934A0240934B02309329
:100D30004C0220934D0290934E0280934F02FF91FC
:100D4000EF91AF919F918F917F916F915F914F91B3
:100D50003F912F910F900BBE0F900FBE0F901F90E1
:100D60001895209148023091490240914A025091D1
:100D70004B0260914C0270914D0280914E02909115
:100D80004F02089510BA11BA10920701109208018B
:100D90000895EAE7F0E0108210927B0080E28093F1
:100DA0007C0080E880BF86E8808308950E94C206A8
:100DB0000E94C9060895883091051CF028E0209310
:100DC0007B0087709070806280937C00EAE7F0E09F
:100DD000808180648083808184FFFDCF8091790051
:100DE000EAE7F0E090819061908310927B0090E0C0
:100DF0000895CF93DF93D82FC62FCA010E94DB0638
:100E0000AC018D2F6C2F23E030E00E949901DF911F
:100E1000CF91089581B18F6081B982B1807F82B90D
:100E2000EAE0F1E0808188618083EBE0F1E080819D
:100E30008861808308956C98749A08956D98759A66
:100E40000895F894EAE6F0E0808182608083EC9A6D
:100E500078940895F894EAE6F0E0808188608083D1
:100E6000ED9A789408950E940A070E941B070E9439
:100E700021070E942A070E94AC0008951F920F923A
:100E80000FB60F9211248F939F93AF93BF938091CE
:100E9000440290914502A0914602B091470201960A
:100EA000A11DB11D8093440290934502A093460278
:100EB000B0934702BF91AF919F918F910F900FBE5A
:100EC0000F901F9018951F920F920FB60F9211243A
:100ED0008F939F93AF93BF93809140029091410273
:100EE000A0914202B09143020196A11DB11D8093D1
:100EF000400290934102A0934202B0934302BF91FB
:100F0000AF919F918F910F900FBE0F901F901895EA
:100F100092B1907F8F70982B92B9089586E00E94CD
:100F20008807089589E00E948807089585E00E9457
:100F3000880708958AE00E948807089584E00E9447
:100F40008807089582E00E948807089581E00E9442
:100F50008807089588E00E948807089580E00E942D
:100F6000880708950F931F93CF93BC0180E090E012
:100F70000E94B00F28E431EE42E850E40E941C0FBA
:100F80000E94840FDC01CB01A0E0B0E0109240028F
:100F900010924102109242021092430210924402B7
:100FA000109245021092460210924702F1E0C0E012
:100FB000409140025091410260914202709143027F
:100FC000009144021091450220914602309147025F
:100FD000EF2F481759076A077B0708F4EC2FEE2319
:100FE00049F44F2F081719072A073B0708F44C2F1D
:100FF0004423F1F20E94AE07CF911F910F91089503
:10100000BC0180E090E00E94B00F25EE30ED4AEA8E
:1010100050E40E941C0F0E94840F462F572F682F08
:10102000792F1092400210924102109242021092C7
:1010300043028091400290914102A0914202B091FE
:101040004302481759076A077B0798F70E94AE07C3
:1010500008950E94AE078FEF9FE3A2E08150904079
:10106000A040E1F700C000000895CF93DF93EC01AA
:101070000E948E07CE010E940008DF91CF91089553
:10108000CF93DF93EC010E949207CE010E940008EB
:10109000DF91CF910895CF93DF93EC010E949607E3
:1010A000CE010E94B207DF91CF910895CF93DF93D5
:1010B000EC010E949A07CE010E94B207DF91CF9106
:1010C0000895CF93DF93EC010E949E07CE01880F15
:1010D000991F0E94B207DF91CF910895CF93DF93BC
:1010E000EC010E94A207CE01880F991F0E94B2074F
:1010F000DF91CF910895CF93DF93EC010E94A60773
:10110000CE01880F991F0E94B207DF91CF910895F9
:10111000CF93DF93EC010E94AA07CE01880F991F9D
:101120000E94B207DF91CF91089586B1886088B997
:10113000089586B1877F88B9089589EA8093200150
:101140008CE08093210110922501109224018FEFF1
:1011500090E0909329018093280190932B01809334
:101160002A010895282F392F30932901209328012F
:10117000862F972F90932B0180932A010895259A0B
:101180002D9A08950E94BF080895E1E8F0E01082CA
:101190008CEF8093850081E08093840093E09093AE
:1011A00089008FEF8093880090938700809386005A
:1011B0008BEA80938000109282008CE080830895F7
:1011C000F8940E94C2080E94C5087894089510926D
:1011D0008900682F70E080E090E00E94B00F2BE75C
:1011E00034E14EEE5FE30E941C0F20E030E04CE063
:1011F00052E40E94560E0E94840F60938800089566
:101200008F929F92AF92BF92CF92DF92EF92FF9216
:10121000CF93DF93CDB7DEB72C970FB6F894DEBF30
:101220000FBECDBFCE010196BE016D5F7F4FAE01F7
:101230004B5F5F4F0E94F003CE010796BE01675FD0
:101240007F4FAE01455F5F4F0E9445046B857C85F3
:10125000882777FD8095982F0E94B20F6B017C0143
:1012600069857A85882777FD8095982F0E94B20F2F
:10127000A70196010E94C90E4B015C016F81788520
:10128000709561957F4F882777FD8095982F0E94F4
:10129000B20FA70196010E94C90E6B017C01C50126
:1012A000B40120E030E044E353E40E94A8102BEDA9
:1012B0003FE049E450E40E941C0FDC01CB01809325
:1012C0006C0290936D02A0936E02B0936F02C701FF
:1012D000B60120E030E044E353E40E94A8102BED77
:1012E0003FE049E450E40E941C0FDC01CB018093F5
:1012F000780290937902A0937A02B0937B020E94C5
:10130000B106209368023093690240936A025093B9
:101310006B022C960FB6F894DEBF0FBECDBFDF91E7
:10132000CF91FF90EF90DF90CF90BF90AF909F90C4
:101330008F9008952F923F924F925F926F927F927B
:101340008F929F92AF92BF92CF92DF92EF92FF92D5
:101350000F931F93CF93DF93CDB7DEB76D970FB683
:10136000F894DEBF0FBECDBF9B8B8A8B7D8B6C8BC1
:10137000CE010196BE016D5F7F4FAE014B5F5F4FA7
:101380000E94F003CE010796BE01675F7F4FAE015A
:10139000455F5F4F0E94450469817A81882777FD08
:1013A0008095982F0E94B20F2091640230916502BF
:1013B00040916602509167020E94550E20E030E095
:1013C00043E053E40E941C0F6E8B7F8B888F998FB4
:1013D0006B817C81882777FD8095982F0E94B20FC2
:1013E000209160023091610240916202509163024B
:1013F0000E94550E20E030E043E053E40E941C0FB1
:101400006A8F7B8F8C8F9D8F0E94B106E22FF32F06
:10141000009168021091690220916A0230916B027A
:10142000480159012E2F281931E0E21708F030E069
:10143000EF2FE919A1E0FE1708F0A0E0FE2FF31B43
:101440003F2FF1E0E31708F0F0E0AF2BF42FFA198B
:10145000E1E04F1708F0E0E04F2F4A1BA1E0F4173E
:1014600008F0A0E0EA2BA52FAB19F1E05A1708F01D
:10147000F0E05A2F5E1BE1E0A51708F0E0E0FE2B3C
:10148000A62FE0E06F1BF1E0A61708F0F0E0EF2BCD
:10149000A72FF0E07E1BE1E0A71708F0E0E0FE2BAD
:1014A000A82FE0E08F1BF1E0A81708F0F0E0EF2B89
:1014B0009E1B0E94ED0F20E030E04AE754E40E94BA
:1014C0001C0FC62E372E282E9D870E94B106209312
:1014D00068023093690240936A0250936B026B85F5
:1014E0007C85882777FD8095982F0E94B20F4B014D
:1014F0005C0169857A85882777FD8095982F0E9401
:10150000B20FA50194010E94C90E2B013C016F810D
:101510007885709561957F4F882777FD8095982F06
:101520000E94B20FA50194010E94C90E6E877F87A9
:10153000888B998B5E894F89388D298D852F942FC3
:10154000A32FB22FBC01CD014D850C2D132D222DC3
:10155000342FA90198010E94A81020916C023091AB
:101560006D0240916E0250916F020E94560E23E36D
:1015700033E343E35FE30E94A8104B015C01C30126
:10158000B20120E030E044E353E40E94A8102BEDC8
:101590003FE049E450E40E941C0F2AE939E949E997
:1015A0005EE30E94A8109B01AC01C501B4010E943A
:1015B000560E862EF72EE82ED92E862F9F2DAE2D75
:1015C000BD2D80936C0290936D02A0936E02B09338
:1015D0006F025A8D4B8D3C8D2D8D852F942FA32F0F
:1015E000B22FBC01CD014D85222D342FA9019801C8
:1015F0000E94A810209178023091790240917A02DD
:1016000050917B020E94560E23E333E343E35FE3F2
:101610000E94A8102B013C016E857F8588899989DD
:1016200020E030E044E353E40E94A8102BED3FE0BB
:1016300049E450E40E941C0F2AE939E949E95EE3D4
:101640000E94A8109B01AC01C301B2010E94560E7A
:10165000DC01CB018093780290937902A0937A0207
:10166000B0937B02882D9F2DAE2DBD2DEA89FB897D
:1016700080839183A283B3838091780290917902D1
:10168000A0917A02B0917B02EC89FD8980839183DD
:10169000A283B3836D960FB6F894DEBF0FBECDBFA5
:1016A000DF91CF911F910F91FF90EF90DF90CF903E
:1016B000BF90AF909F908F907F906F905F904F9072
:1016C0003F902F9008950E9426020E941D010E94C3
:1016D0009A040E9425060E94D6060E9433070E94A3
:1016E0009D080E94E0080E940009089588EC90E09F
:1016F00068EC70E00E94B20881E490E00E94350836
:101700008AE590E00E945608089588EC90E068EC25
:1017100070E00E94B20881E490E00E9435088AE5FA
:1017200090E00E944B08089588EC90E068EC70E02F
:101730000E94B20881E490E00E9435080E949A0756
:1017400084EB90E00E94B20708952F923F924F924F
:101750005F926F927F928F929F92AF92BF92CF9241
:10176000DF92EF92FF920F931F93CF93DF93CDB74A
:10177000DEB7AE970FB6F894DEBF0FBECDBF0F2E0B
:10178000F9E02F2E3324F02D2C0E3D1E0E948E07E3
:101790008AEF90E06AEF70E00E94B208CE010596F1
:1017A000BE016F5F7F4F0E949A0983E090E00E9424
:1017B000DB068C0182E090E00E94DB065C0181E0A8
:1017C00090E00E94DB063C0189E090E00E94DB068D
:1017D0002C018DE090E00E94DB0698A78FA385E0A6
:1017E00090E00E94DB069AA789A786E090E00E941D
:1017F000DB069CA78BA787E090E00E94DB069EA7F4
:101800008DA7EE24FF24E3940B30110514F0EE2491
:10181000FF24CC24DD24C3948BE0A816B10414F07B
:10182000CC24DD248824992483949BE069167104D8
:1018300014F088249924AA24BB24A394ABE54A1667
:10184000510414F4AA24BB2401E010E08FA198A550
:101850008B35910514F400E010E091E0A916B10475
:1018600009F4EFC10130110509F0A1C08FEF9FE32A
:10187000A2E081509040A040E1F700C000000E942B
:10188000AE070E9495088FEF9FEFA8E0815090402F
:10189000A040E1F700C000000E949908A114B10423
:1018A00019F584EB0E94E7088FEF9FEFA9E58150BF
:1018B0009040A040E1F700C0000080E00E94E708EF
:1018C0008FEF9FE7A4E081509040A040E1F700C077
:1018D00000002BC08FEF9FEFA9E581509040A04002
:1018E000E1F700C0000021C08FEF9FEFA9E5815014
:1018F0009040A040E1F700C0000084EB0E94E708A0
:101900008FEF9FEFA9E581509040A040E1F700C024
:10191000000080E00E94E7088FEF9FE7A4E081507D
:101920009040A040E1F700C00000ADB7BEB71E97E1
:101930000FB6F894BEBF0FBEADBFEDB7FEB7319680
:1019400012963C922E92119784E190E093838283C9
:10195000A0E0B2E0B583A483B782A6821187008796
:1019600080E390E093878287958784870E94221185
:10197000ADB7BEB71E960FB6F894BEBF0FBEADBFD3
:10198000C1010E9449028DE00E9439020E948E0727
:101990008AEF90E06AEF70E00E94B2088FEF9FE755
:1019A000A4E081509040A040E1F700C0000091E029
:1019B000E916F104B1F5A1E0CA16D10409F05EC13F
:1019C000B1E08B16910409F059C10E948E078AEF8D
:1019D00090E06AEF70E00E94B20854C181E088167E
:1019E000910409F04FC10E948E078AEF90E06AEFE0
:1019F00070E00E94B20815C08114910491F40E9415
:101A00009A0788E790E062E370E00E94B20882E300
:101A100093EBA2E081509040A040E1F700C000C0ED
:101A200024C0E114F10409F591E0C916D10409F0CC
:101A30002FC1A1E08A16910409F02AC10E949607DD
:101A400082E390E068E770E00E94B20882E393EBE3
:101A5000A2E081509040A040E1F700C000C005C066
:101A600091E08916910489F418C0A1E0EA16F10406
:101A700041F4C114D10409F0A0C08114910469F0AB
:101A80009CC0E114F10409F098C0C114D10409F01C
:101A900094C08114910409F090C00E94AE070E9486
:101AA00095088FEF9FE80197F1F700C000000E94B2
:101AB0009908ADB7BEB71C970FB6F894BEBF0FBE5E
:101AC000ADBFEDB7FEB7319612963C922E921197AC
:101AD00084E190E093838283A2E1B2E0B583A483A2
:101AE00089A59AA597838683ABA5BCA5B187A08756
:101AF0008DA59EA5938782870E942211ADB7BEB7A0
:101B00001C960FB6F894BEBF0FBEADBFC1010E94B8
:101B100049028DE00E9439020E944102182F86344A
:101B200091F48AEF90E06AEF70E00E94B2080E94A0
:101B30008E078FEF9FE7AFE181509040A040E1F723
:101B400000C000000AC0823519F40E94760B0AC05A
:101B50008C3419F40E94850B19CE153519F40E94A6
:101B6000940B14CE133509F011CE0E94AE070E94DB
:101B700095088FEF9FEFA0EE81509040A040E1F7D5
:101B800000C000000E949908AE960FB6F894DEBF20
:101B90000FBECDBFDF91CF911F910F91FF90EF90BE
:101BA000DF90CF90BF90AF909F908F907F906F907D
:101BB0005F904F903F902F900895ADB7BEB7549768
:101BC0000FB6F894BEBF0FBEADBFEDB7FEB73196EE
:101BD00012963C922E9211978EE190E0938382832D
:101BE000A3E2B2E0B583A4838D819E81AF81B885E5
:101BF00086839783A087B18789819A81AB81BC81D5
:101C000082879387A487B58789A59AA597878687B2
:101C1000ABA5BCA5B18BA08B8DA59EA5938B828B0C
:101C20000E942211ADB7BEB754960FB6F894BEBF4E
:101C30000FBEADBFC1010E9449028DE00E94390272
:101C4000A5CD8FEF9FE3A2E081509040A040E1F747
:101C500000C000000E94AE070E9495088FEF9FEF22
:101C6000A8E081509040A040E1F700C000000E9431
:101C700099080115110509F037CE2CCEC114D104F5
:101C800009F4ACCE91E0C916D10409F0CACEB4CEA5
:101C9000C114D10409F4E4CEE8CE0E94630B6F981E
:101CA0006799FECF0E94A50B08955058BB27AA271D
:101CB0000ED00DC2FED130F003D220F031F49F3FA0
:101CC00011F41EF4CEC10EF4E095E7FBC4C1E92F78
:101CD0000FD280F3BA17620773078407950718F0CD
:101CE00071F49EF527C20EF4E0950B2EBA2FA02DAD
:101CF0000B01B90190010C01CA01A0011124FF27B9
:101D0000591B99F0593F50F4503E68F11A16F040B3
:101D1000A22F232F342F4427585FF3CF46953795B2
:101D20002795A795F0405395C9F77EF41F16BA0B77
:101D3000620B730B840BBAF09150A1F0FF0FBB1F25
:101D4000661F771F881FC2F70EC0BA0F621F731F6E
:101D5000841F48F4879577956795B795F7959E3FCB
:101D600008F0B3CF9395880F08F09927EE0F979559
:101D7000879508959ED158F080E891E009F49EEF90
:101D80009FD128F040E851E059F45EEF09C069C1E5
:101D9000D1C1E92FE078ACD168F3092E052AC1F34F
:101DA000261737074807590738F00E2E07F8E025A1
:101DB00069F0E025E0640AC0EF6307F8009407FAD1
:101DC000DB01B9019D01DC01CA01AD01EF9343D0F4
:101DD0007ED10AD05F91552331F02BED3FE049E4ED
:101DE00050FD49EC63CF0895DF93DD27B92FBF770E
:101DF00040E85FE31616170648075B0710F4D92F73
:101E0000A0D19F938F937F936F9305D2E4EEF0E080
:101E10002BD15DD12F913F914F915F91A5D1DD23C2
:101E200049F09058A2EA2AED3FE049EC5FE3D07810
:101E30005D274DDFDF914BC10CD049C141D140F04E
:101E400038D130F021F45F3F19F005C1511173C151
:101E500008C14ED198F39923C9F35523B1F3951BCB
:101E6000550BBB27AA2762177307840738F09F5FBB
:101E70005F4F220F331F441FAA1FA9F333D00E2E2A
:101E80003AF0E0E830D091505040E695001CCAF797
:101E900029D0FE2F27D0660F771F881FBB1F26175C
:101EA00037074807AB07B0E809F0BB0B802DBF012F
:101EB000FF2793585F4F2AF09E3F510568F0CBC033
:101EC0003AC15F3FECF3983EDCF3869577956795D2
:101ED000B795F7959F5FC9F7880F911D96958795E0
:101EE00097F90895E1E0660F771F881FBB1F6217FF
:101EF00073078407BA0720F0621B730B840BBA0BBD
:101F0000EE1F88F7E0950895FBD088F09F5790F07A
:101F1000B92F9927B751A0F0D1F0660F771F881F0E
:101F2000991F1AF0BA95C9F712C0B13081F002D1E9
:101F3000B1E00895FFC0672F782F8827B85F39F088
:101F4000B93FCCF3869577956795B395D9F73EF46D
:101F500090958095709561957F4F8F4F9F4F089515
:101F6000E89409C097FB3EF4909580957095619533
:101F70007F4F8F4F9F4F9923A9F0F92F96E9BB27E9
:101F80009395F695879577956795B795F111F8CF65
:101F9000FAF4BB0F11F460FF1BC06F5F7F4F8F4FD0
:101FA0009F4F16C0882311F096E911C0772321F0C6
:101FB0009EE8872F762F05C0662371F096E8862F5E
:101FC00070E060E02AF09A95660F771F881FDAF7B5
:101FD000880F9695879597F90895E894F92F96EBD1
:101FE000FF2381F0121613061406440B9395F69501
:101FF00087957795679557954040FF23B9F71BC0A4
:1020000099270895882351F49850D2F7872B762F7B
:10201000652F542F432F322F20E0B1F312161306F1
:102020001406440B88233AF09A95440F551F661FF7
:10203000771F881FCAF755234AF4440F551F11F420
:1020400060FF04C06F5F7F4F8F4F9F4F880F969543
:10205000879597F9089597F99F6780E870E060E0A9
:1020600008959FEF80EC0895DF93CF931F930F9314
:10207000FF92EF92DF927B018C01689405C0DA2E0B
:10208000EF0172D0FE01E894A5912591359145911B
:102090005591AEF3EF011BDEFE019701A801DA9422
:1020A00079F7DF90EF90FF900F911F91CF91DF9123
:1020B000089500240A9416161706180609060895AE
:1020C00000240A9412161306140605060895092E14
:1020D0000394000C11F4882352F0BB0F40F4BF2B83
:1020E00011F460FF04C06F5F7F4F8F4F9F4F0895C3
:1020F00057FD9058440F551F59F05F3F71F04795B9
:10210000880F97FB991F61F09F3F79F0879508959D
:10211000121613061406551FF2CF4695F1DF08C0BC
:10212000161617061806991FF1CF869571056105D9
:1021300008940895E894BB2766277727CB0197F981
:1021400008959B01AC0160E070E080E89FE374CEED
:102150000BD0BDCFAEDF28F0B3DF18F0952309F028
:102160007ACF7FCF1124E7CFC3DFA0F3959FD1F3C0
:10217000950F50E0551F629FF001729FBB27F00D35
:10218000B11D639FAA27F00DB11DAA1F649F66278A
:10219000B00DA11D661F829F2227B00DA11D621FD9
:1021A000739FB00DA11D621F839FA00D611D221F93
:1021B000749F3327A00D611D231F849F600D211D77
:1021C000822F762F6A2F11249F5750408AF0E1F01A
:1021D00088234AF0EE0FFF1FBB1F661F771F881F63
:1021E00091505040A9F79E3F510570F034CFA3CFD6
:1021F0005F3FECF3983EDCF3869577956795B7954E
:10220000F795E7959F5FC1F7FE2B880F911D969577
:10221000879597F908959B01AC019ACFAA1BBB1B28
:1022200051E107C0AA1FBB1FA617B70710F0A61BD6
:10223000B70B881F991F5A95A9F780959095BC01F7
:10224000CD0108950F931F93CF93DF93CDB7DEB7E2
:102250002E970FB6F894DEBF0FBECDBF0E891F8933
:10226000888D998D26E02C831A83098397FF02C0FD
:1022700080E090E801979E838D83AE01445E5F4FBE
:10228000CE0101966A8D7B8D0E945F114D815E812A
:1022900057FD0AC02F813885421753070CF49A0165
:1022A000020F131FF80110822E960FB6F894DEBFAE
:1022B0000FBECDBFDF91CF911F910F9108952F9247
:1022C0003F924F925F926F927F928F929F92AF92C6
:1022D000BF92CF92DF92EF92FF920F931F93CF9313
:1022E000DF93CDB7DEB72D970FB6F894DEBF0FBEE4
:1022F000CDBF3C017D876C875A01FC011782168295
:10230000838181FFC8C12E010894411C511CF30137
:102310009381EC85FD8593FD859193FF8191FD87E8
:10232000EC87882309F4B3C1853241F493FD85918C
:1023300093FF8191FD87EC87853229F490E0B3010A
:102340000E947C13E4CFFF24EE2410E01032B0F49E
:102350008B3269F08C3228F4803251F0833271F480
:102360000BC08D3239F0803349F411602CC01260FB
:10237000146029C0186027C0106125C017FD2EC049
:10238000282F20532A3098F416FF08C08F2D880F6D
:10239000F82EFF0CFF0CF80EF20E15C08E2D880FD4
:1023A000E82EEE0CEE0CE80EE20E10620CC08E323F
:1023B00021F416FD6CC1106406C08C3611F410684F
:1023C00002C0883659F4EC85FD8593FD859193FF15
:1023D0008191FD87EC87882309F0B8CF982F955419
:1023E000933018F09052933038F424E030E0A20E8D
:1023F000B31E3FE339830FC0833631F0833781F05A
:10240000833509F05AC022C0F5018081898322E01A
:1024100030E0A20EB31E21E0C22ED12C420114C026
:1024200092E0292E312C2A0C3B1CF50180809180F2
:1024300016FF03C06F2D70E002C06FEF7FEFC40185
:102440000E9471136C0151011F7715C082E0282E84
:10245000312C2A0C3B1CF5018080918016FF03C0B3
:102460006F2D70E002C06FEF7FEFC4010E94661312
:102470006C011068510113FD1CC006C080E290E0A1
:10248000B3010E947C13EA948E2D90E0C816D90601
:10249000A8F30FC0F40117FD859117FF81914F013B
:1024A00090E0B3010E947C13E110EA940894C10803
:1024B000D108C114D10471F7E7C0843611F0893610
:1024C00051F5F50117FF07C080819181A281B38189
:1024D00024E030E008C080819181AA2797FDA09573
:1024E000BA2F22E030E0A20EB31E012F0F76B7FF05
:1024F00008C0B095A095909581959F4FAF4FBF4F65
:102500000068BC01CD01A2012AE030E00E94A813BE
:10251000D82ED4183FC0853721F41F7E2AE030E042
:1025200020C0197F8F36A9F0803720F4883509F054
:10253000AEC00BC0803721F0883709F0A8C001C0B9
:10254000106114FF09C0146007C014FF08C01660B2
:1025500006C028E030E005C020E130E002C020E104
:1025600032E0F50117FF07C060817181828193819C
:1025700044E050E006C06081718180E090E042E07C
:1025800050E0A40EB51EA2010E94A813D82ED418A4
:10259000012F0F7706FF09C00E7FDF1430F404FF10
:1025A00006C002FD04C00F7E02C01D2D01C01F2DFC
:1025B000802F90E004FF0CC0FE01ED0DF11D208185
:1025C000203311F4097E09C002FF06C01E5F05C05A
:1025D00086789070009709F01F5F802E992403FD84
:1025E00012C000FF0DC0FD2C1E1550F4FE0CF11A98
:1025F0001E2D06C080E290E0B3010E947C131F5F95
:102600001E15C0F304C01E1510F4E11A01C0EE241B
:1026100084FE0FC080E390E0B3010E947C1382FE31
:102620001FC081FE03C088E590E010C088E790E0FD
:102630000DC0C40186789070009791F081FC02C0B3
:1026400080E201C08BE207FD8DE290E0B3010E94C1
:102650007C1306C080E390E0B3010E947C13FA94DF
:10266000DF14C0F3DA94F201ED0DF11D808190E0EA
:10267000B3010E947C13DD20A9F706C080E290E040
:10268000B3010E947C13EA94EE20C1F740CEF3011F
:102690008681978102C08FEF9FEF2D960FB6F89439
:1026A000DEBF0FBECDBFDF91CF911F910F91FF9085
:1026B000EF90DF90CF90BF90AF909F908F907F90E2
:1026C0006F905F904F903F902F900895FC01059080
:1026D000615070400110D8F7809590958E0F9F1F24
:1026E0000895FC016150704001900110D8F7809569
:1026F00090958E0F9F1F08950F931F93CF93DF9395
:102700008C01EB018B8181FF1BC082FF0DC02E81EC
:102710003F818C819D812817390764F4E881F98114
:102720000193F983E88306C0E885F985802F199520
:10273000009731F48E819F8101969F838E8302C022
:102740000FEF1FEFC801DF91CF911F910F910895F7
:10275000FA01AA27283051F1203181F1E8946F93D2
:102760006E7F6E5F7F4F8F4F9F4FAF4FB1E03ED078
:10277000B4E03CD0670F781F891F9A1FA11D680F16
:10278000791F8A1F911DA11D6A0F711D811D911D49
:10279000A11D20D009F468943F912AE0269F1124BE
:1027A0003019305D3193DEF6CF010895462F477022
:1027B000405D4193B3E00FD0C9F7F6CF462F4F707D
:1027C000405D4A3318F0495D31FD4052419302D0DB
:1027D000A9F7EACFB4E0A695979587957795679581
:1027E000BA95C9F700976105710508959B01AC0181
:1027F0000A2E06945795479537952795BA95C9F7A8
:10280000620F731F841F951FA01D0895F894FFCFBA
:10281000433A253033642C253033642C25632C2532
:1028200063004E3A253033642C253033642C253038
:10283000336400443A25352E32662C25352E326617
:102840002C253033642C253033642C253033640040
:00000001FF
